{
  "contractName": "DecentralBank",
  "abi": [
    {
      "inputs": [
        {
          "internalType": "contract RWD",
          "name": "_rwd",
          "type": "address"
        },
        {
          "internalType": "contract Tether",
          "name": "_tether",
          "type": "address"
        }
      ],
      "stateMutability": "nonpayable",
      "type": "constructor"
    },
    {
      "inputs": [
        {
          "internalType": "address",
          "name": "",
          "type": "address"
        }
      ],
      "name": "hasStaked",
      "outputs": [
        {
          "internalType": "bool",
          "name": "",
          "type": "bool"
        }
      ],
      "stateMutability": "view",
      "type": "function",
      "constant": true
    },
    {
      "inputs": [
        {
          "internalType": "address",
          "name": "",
          "type": "address"
        }
      ],
      "name": "isStaking",
      "outputs": [
        {
          "internalType": "bool",
          "name": "",
          "type": "bool"
        }
      ],
      "stateMutability": "view",
      "type": "function",
      "constant": true
    },
    {
      "inputs": [],
      "name": "name",
      "outputs": [
        {
          "internalType": "string",
          "name": "",
          "type": "string"
        }
      ],
      "stateMutability": "view",
      "type": "function",
      "constant": true
    },
    {
      "inputs": [],
      "name": "owner",
      "outputs": [
        {
          "internalType": "address",
          "name": "",
          "type": "address"
        }
      ],
      "stateMutability": "view",
      "type": "function",
      "constant": true
    },
    {
      "inputs": [],
      "name": "rwd",
      "outputs": [
        {
          "internalType": "contract RWD",
          "name": "",
          "type": "address"
        }
      ],
      "stateMutability": "view",
      "type": "function",
      "constant": true
    },
    {
      "inputs": [
        {
          "internalType": "uint256",
          "name": "",
          "type": "uint256"
        }
      ],
      "name": "stakers",
      "outputs": [
        {
          "internalType": "address",
          "name": "",
          "type": "address"
        }
      ],
      "stateMutability": "view",
      "type": "function",
      "constant": true
    },
    {
      "inputs": [
        {
          "internalType": "address",
          "name": "",
          "type": "address"
        }
      ],
      "name": "stakingBalance",
      "outputs": [
        {
          "internalType": "uint256",
          "name": "",
          "type": "uint256"
        }
      ],
      "stateMutability": "view",
      "type": "function",
      "constant": true
    },
    {
      "inputs": [],
      "name": "tether",
      "outputs": [
        {
          "internalType": "contract Tether",
          "name": "",
          "type": "address"
        }
      ],
      "stateMutability": "view",
      "type": "function",
      "constant": true
    },
    {
      "inputs": [
        {
          "internalType": "uint256",
          "name": "_amount",
          "type": "uint256"
        }
      ],
      "name": "depositTokens",
      "outputs": [],
      "stateMutability": "nonpayable",
      "type": "function"
    }
  ],
  "bytecode": "0x60806040526040518060400160405280600e81526020017f446563656e7472616c2042616e6b00000000000000000000000000000000000081525060009080519060200190620000519291906200010f565b503480156200005f57600080fd5b5060405162000ea338038062000ea3833981810160405281019062000085919062000282565b81600360006101000a81548173ffffffffffffffffffffffffffffffffffffffff021916908373ffffffffffffffffffffffffffffffffffffffff16021790555080600260006101000a81548173ffffffffffffffffffffffffffffffffffffffff021916908373ffffffffffffffffffffffffffffffffffffffff16021790555050506200032e565b8280546200011d90620002f8565b90600052602060002090601f0160209004810192826200014157600085556200018d565b82601f106200015c57805160ff19168380011785556200018d565b828001600101855582156200018d579182015b828111156200018c5782518255916020019190600101906200016f565b5b5090506200019c9190620001a0565b5090565b5b80821115620001bb576000816000905550600101620001a1565b5090565b600080fd5b600073ffffffffffffffffffffffffffffffffffffffff82169050919050565b6000620001f182620001c4565b9050919050565b60006200020582620001e4565b9050919050565b6200021781620001f8565b81146200022357600080fd5b50565b60008151905062000237816200020c565b92915050565b60006200024a82620001e4565b9050919050565b6200025c816200023d565b81146200026857600080fd5b50565b6000815190506200027c8162000251565b92915050565b600080604083850312156200029c576200029b620001bf565b5b6000620002ac8582860162000226565b9250506020620002bf858286016200026b565b9150509250929050565b7f4e487b7100000000000000000000000000000000000000000000000000000000600052602260045260246000fd5b600060028204905060018216806200031157607f821691505b60208210811415620003285762000327620002c9565b5b50919050565b610b65806200033e6000396000f3fe608060405234801561001057600080fd5b50600436106100935760003560e01c80636f49712b116100665780636f49712b146101225780638da5cb5b14610152578063c93c8f3414610170578063dd49756e146101a0578063fd5e6dd1146101bc57610093565b806306fdde03146100985780631a8972d3146100b657806345bc78ab146100d45780635efc071a14610104575b600080fd5b6100a06101ec565b6040516100ad91906106f8565b60405180910390f35b6100be61027a565b6040516100cb9190610799565b60405180910390f35b6100ee60048036038101906100e991906107f7565b6102a0565b6040516100fb919061083d565b60405180910390f35b61010c6102b8565b6040516101199190610879565b60405180910390f35b61013c600480360381019061013791906107f7565b6102de565b60405161014991906108af565b60405180910390f35b61015a6102fe565b60405161016791906108d9565b60405180910390f35b61018a600480360381019061018591906107f7565b610324565b60405161019791906108af565b60405180910390f35b6101ba60048036038101906101b59190610920565b610344565b005b6101d660048036038101906101d19190610920565b610620565b6040516101e391906108d9565b60405180910390f35b600080546101f99061097c565b80601f01602080910402602001604051908101604052809291908181526020018280546102259061097c565b80156102725780601f1061024757610100808354040283529160200191610272565b820191906000526020600020905b81548152906001019060200180831161025557829003601f168201915b505050505081565b600360009054906101000a900473ffffffffffffffffffffffffffffffffffffffff1681565b60056020528060005260406000206000915090505481565b600260009054906101000a900473ffffffffffffffffffffffffffffffffffffffff1681565b60076020528060005260406000206000915054906101000a900460ff1681565b600160009054906101000a900473ffffffffffffffffffffffffffffffffffffffff1681565b60066020528060005260406000206000915054906101000a900460ff1681565b60008111610387576040517f08c379a000000000000000000000000000000000000000000000000000000000815260040161037e906109fa565b60405180910390fd5b600260009054906101000a900473ffffffffffffffffffffffffffffffffffffffff1673ffffffffffffffffffffffffffffffffffffffff166323b872dd3330846040518463ffffffff1660e01b81526004016103e693929190610a1a565b6020604051808303816000875af1158015610405573d6000803e3d6000fd5b505050506040513d601f19601f820116820180604052508101906104299190610a7d565b5080600560003373ffffffffffffffffffffffffffffffffffffffff1673ffffffffffffffffffffffffffffffffffffffff168152602001908152602001600020546104759190610ad9565b600560003373ffffffffffffffffffffffffffffffffffffffff1673ffffffffffffffffffffffffffffffffffffffff16815260200190815260200160002081905550600660003373ffffffffffffffffffffffffffffffffffffffff1673ffffffffffffffffffffffffffffffffffffffff16815260200190815260200160002060009054906101000a900460ff1661056d576004339080600181540180825580915050600190039060005260206000200160009091909190916101000a81548173ffffffffffffffffffffffffffffffffffffffff021916908373ffffffffffffffffffffffffffffffffffffffff1602179055505b6001600760003373ffffffffffffffffffffffffffffffffffffffff1673ffffffffffffffffffffffffffffffffffffffff16815260200190815260200160002060006101000a81548160ff0219169083151502179055506001600660003373ffffffffffffffffffffffffffffffffffffffff1673ffffffffffffffffffffffffffffffffffffffff16815260200190815260200160002060006101000a81548160ff02191690831515021790555050565b6004818154811061063057600080fd5b906000526020600020016000915054906101000a900473ffffffffffffffffffffffffffffffffffffffff1681565b600081519050919050565b600082825260208201905092915050565b60005b8381101561069957808201518184015260208101905061067e565b838111156106a8576000848401525b50505050565b6000601f19601f8301169050919050565b60006106ca8261065f565b6106d4818561066a565b93506106e481856020860161067b565b6106ed816106ae565b840191505092915050565b6000602082019050818103600083015261071281846106bf565b905092915050565b600073ffffffffffffffffffffffffffffffffffffffff82169050919050565b6000819050919050565b600061075f61075a6107558461071a565b61073a565b61071a565b9050919050565b600061077182610744565b9050919050565b600061078382610766565b9050919050565b61079381610778565b82525050565b60006020820190506107ae600083018461078a565b92915050565b600080fd5b60006107c48261071a565b9050919050565b6107d4816107b9565b81146107df57600080fd5b50565b6000813590506107f1816107cb565b92915050565b60006020828403121561080d5761080c6107b4565b5b600061081b848285016107e2565b91505092915050565b6000819050919050565b61083781610824565b82525050565b6000602082019050610852600083018461082e565b92915050565b600061086382610766565b9050919050565b61087381610858565b82525050565b600060208201905061088e600083018461086a565b92915050565b60008115159050919050565b6108a981610894565b82525050565b60006020820190506108c460008301846108a0565b92915050565b6108d3816107b9565b82525050565b60006020820190506108ee60008301846108ca565b92915050565b6108fd81610824565b811461090857600080fd5b50565b60008135905061091a816108f4565b92915050565b600060208284031215610936576109356107b4565b5b60006109448482850161090b565b91505092915050565b7f4e487b7100000000000000000000000000000000000000000000000000000000600052602260045260246000fd5b6000600282049050600182168061099457607f821691505b602082108114156109a8576109a761094d565b5b50919050565b7f616d6f756e742063616e6e6f7420626520300000000000000000000000000000600082015250565b60006109e460128361066a565b91506109ef826109ae565b602082019050919050565b60006020820190508181036000830152610a13816109d7565b9050919050565b6000606082019050610a2f60008301866108ca565b610a3c60208301856108ca565b610a49604083018461082e565b949350505050565b610a5a81610894565b8114610a6557600080fd5b50565b600081519050610a7781610a51565b92915050565b600060208284031215610a9357610a926107b4565b5b6000610aa184828501610a68565b91505092915050565b7f4e487b7100000000000000000000000000000000000000000000000000000000600052601160045260246000fd5b6000610ae482610824565b9150610aef83610824565b9250827fffffffffffffffffffffffffffffffffffffffffffffffffffffffffffffffff03821115610b2457610b23610aaa565b5b82820190509291505056fea2646970667358221220a3777a172808f14e58fb7064072e4cca33068d04fe015343e5edd1220e3bf18b64736f6c634300080c0033",
  "immutableReferences": {},
  "source": "\r\n// SPDX-License-Identifier: MIT\r\npragma solidity >=0.4.22 <0.9.0;\r\n//This is a decentral bank which will be taking both our reward tokens and our tether tokens and interacting\r\n//Digital Bank functionality for our users, our customers, our investors\r\n//Inside our digital bank we want to have access to the tether tokens, and we bascially want to\r\n//be able to keep track of these and then be able to issue tokens, reward tokens and keep track of the state,\r\n//take the deposits, be able tyo accept deposits and withdrawls\r\n\r\nimport './RWD.sol';\r\nimport './Tether.sol';\r\n\r\n\r\ncontract DecentralBank {\r\n    string public name = \"Decentral Bank\";\r\n    address public owner;\r\n    Tether public tether;\r\n    RWD public rwd;\r\n\r\n    //array of address opf stakers\r\n    address[] public stakers;\r\n\r\n\r\n    //key Store value setup for address\r\n    mapping (address => uint) public stakingBalance;\r\n    mapping (address => bool) public hasStaked;\r\n    mapping (address => bool) public isStaking;\r\n  \r\n    constructor(RWD _rwd, Tether _tether) public{\r\n        rwd = _rwd;\r\n        tether = _tether;\r\n    }//We are doing this because it is important to wire the smart contracts with each other\r\n\r\n\r\n    //This is a staking function \r\n    function depositTokens(uint _amount) public {\r\n        \r\n        //Require staking amount to be greater than 0\r\n        require(_amount> 0, 'amount cannot be 0');\r\n        //Transfer tether tokens to this contract address for staking\r\n        tether.transferFrom(msg.sender, address(this), _amount);\r\n\r\n        //Update and keep track of staking balance as they change\r\n        stakingBalance[msg.sender] = stakingBalance[msg.sender] + _amount;\r\n\r\n        if(!hasStaked[msg.sender]){\r\n            stakers.push(msg.sender);\r\n        }\r\n\r\n        //Update Staking balance\r\n        isStaking[msg.sender] = true;\r\n        hasStaked[msg.sender] = true;\r\n    }\r\n//Now to check if they have staked or staking \r\n}",
  "sourcePath": "C:\\Users\\Prateek Priyadarshi\\Desktop\\VIT Course Material And Sylabus\\Master\\MainProject\\defi-staking-app-starter\\defi-staking-app-starter\\contracts\\DecentralBank.sol",
  "compiler": {
    "name": "solc",
    "version": "0.8.12+commit.f00d7308.Emscripten.clang"
  },
  "schemaVersion": "3.4.4",
  "updatedAt": "2022-03-11T18:13:16.100Z",
  "networkType": "ethereum",
  "devdoc": {
    "kind": "dev",
    "methods": {},
    "version": 1
  },
  "userdoc": {
    "kind": "user",
    "methods": {},
    "version": 1
  }
}